:020000020000FC
:1000000014C0189518951895189518951895189561
:100010001895189518951895189518951895189578
:10002000189518951895189518950FED0DBF0FE0B8
:1000300006B900E808B901E107BB06EF08BB0FE706
:1000400001BB00E002BB03E00ABB04E00BBB0AD12A
:1000500009D10EF405C0C498BB9AC398DBD099C0EF
:100060004CEC29D144E427D12CD1F0F7FBD04CEC57
:1000700022D14EEB20D1DBD0E0916000F091610005
:10008000DED0C03009F405C0C498BB9AC398C2D072
:1000900080C0009164000F3109F1E4D04CEC0BD129
:1000A0004EE409D140E007D106D14FE104D1DAD0C6
:1000B0004CEC01D14EEBFFD0BAD0C1D0C03009F426
:1000C00005C0C498BB9AC398A5D063C0CBD04CECF4
:1000D000F2D048E4F0D09ED09DD09CD0C498BB9A7A
:1000E000C398FE2E0FE0F022E07FFF70EF2BE29529
:1000F0000E2F007831F4F0E00F2D083068F0E39512
:100100000BC0FFEF0F2D083028F0E095E03021F410
:10011000F0E002C0E095E395EF9360E070E080E0EE
:10012000E43618F0E4566395FBCFEA3018F0EA5055
:100130007395FBCFE13018F0E1508395FBCFEF9141
:10014000EA3060F4F03021F4982F27D0D6D021C0C7
:1001500090E023D0D2D0982F20D01BC0E43688F472
:10016000F03031F4972F19D0C8D0982F16D011C085
:1001700090E013D0C2D0972F10D0BFD0982F0DD0C1
:1001800008C0962F0AD0B9D0972F07D0B6D0982F95
:1001900004D000E305BF8895FFCF903021F4D89AB2
:1001A000A3D0D89836C0913021F4969A9DD09698D5
:1001B00030C0923021F4949A97D094982AC093300A
:1001C00021F4D99A91D0D99824C0943021F4C09ABE
:1001D0008BD0C0981EC0953021F4939A85D0939807
:1001E00018C0963021F4919A7FD0919812C0973020
:1001F00021F4959A79D095980CC0983021F4929A70
:1002000073D0929806C0993021F4909A6DD090984E
:1002100000C00895D89A7AD0D89878D0D89A76D055
:10022000D89874D0D89A72D0D89870D00895A0E693
:10023000B0E009E053D04D930A95E1F708950CE83A
:10024000202EA0E6B0E0CD9108E0002EDD9108E080
:10025000102ED695C79508F4C2251A94D1F70A94A2
:10026000A9F708956894C398BB9A59D0BB98000029
:10027000000000000000000000000000B399E894B6
:100280004ED0089560F4C398BB9ABB98000000005C
:100290000000000000000000000000000895C39866
:1002A000BB9A0000000000000000000000000000F9
:1002B0000000BB98089558E04795E4DF5A95E1F7B0
:1002C00008958894C398BB9ABB980000B39908948A
:1002D00000000000000000000000089558E0F1DF79
:1002E00047955A95E1F708951AE620EA2A95F1F71D
:1002F0001A95D9F70000000008951AE620EA2A9519
:10030000F1F71A95D9F700000000089512E12CEEDC
:100310002A95F1F71A95D9F700000000089514E125
:080320001A95F1F700000895A1
:00000001FF
